:100000000C9499000C94A60F0C947F0F0C94C100D3
:100010000C94C1000C94C1000C94C1000C94C1005C
:100020000C94C1000C94C1000C94C1000C94C1004C
:100030000C94C1000C94C1000C94C1000C94C1003C
:100040000C94350F0C94C1000C94F30F0C94CD0F4D
:100050000C94C1000C94C1000C94C1000C94C1001C
:100060000C9425100C94C10000000000240027000F
:100070002A0000000000250028002B0000000008D6
:10008000000201000003040700000000000000005F
:10009000000000002300260029005E01011F01036B
:1000A0000301008A02010A010202010064001E47E6
:1000B000040B0906007C0101060103030100F401A1
:1000C000060E0102020100C2011701010202010134
:1000D0009600023E0106060100C8000382071003D5
:1000E0001000C800820710071003016D0112010300
:1000F000010103010E01240101020201014001245A
:1001000001010202010104040404040404040202C3
:100110000202020203030303030301020408102086
:10012000408001020408102001020408102044113C
:10013000421611241FBECFEFD8E0DEBFCDBF11E0C5
:10014000A0E0B1E0E6E7F8E302C005900D92A43923
:10015000B107D9F723E0A4E9B1E001C01D92AC3E9C
:10016000B207E1F710E0C8E9D0E004C02197FE0132
:100170000E945F18C739D107C9F70E94F5110C9486
:100180002E1C0C94000008950895CF92DF92EF92F8
:10019000FF92CF93DF93B091A303A0E08111AB2F27
:1001A0008091A40390E0880F991FAC0140575F4FE6
:1001B000C090A903D090AA03E090AB03F090AC03E9
:1001C00030E020E0FA01C591D491E881B90190E0D6
:1001D00080E0EB23EA130AC02F5F3F4F6C157D05CB
:1001E0008E059F0578F36FEF7FEFCB01DF91CF9105
:1001F000FF90EF90DF90CF9008958230910538F016
:10020000880F991F880F991F05970197F1F7089597
:10021000BF92CF92DF92EF92FF920F931F93CF93F3
:10022000DF93EC0188819981892B81F06EBD0DB43B
:1002300007FEFDCF0EB5802FDF91CF911F910F915B
:10024000FF90EF90DF90CF90BF90089588859985BB
:1002500011E0892B09F010E8BB24B394862F812389
:1002600009F0B12CF62E2C813D814E815F8160E238
:1002700071EA87E090E00E94A716E22E00E0C22E0D
:10028000D12CEE2019F0C6010E94FD008A85982F1E
:10029000977F09F044C08D858F3F89F09F2D912372
:1002A00081E009F480E08B1551F0EF85F8898F89A2
:1002B000992379F19081892B8083BB24B394E989B8
:1002C000FA898081998D892B8083EE2019F0C601EF
:1002D0000E94FD008E858F3F39F0EB89FC8980817B
:1002E000988D892309F0012BE989FA899081898DFC
:1002F00080958923808388859985892B09F067C03B
:10030000110F1111BECF8E858F3F09F094CF0F2DA5
:1003100092CF9081809589238083B12CD0CF8C306F
:1003200099F58D858F3F49F0EF85F8898F899F2D4D
:10033000912331F19081892B8083E989FA89908119
:10034000898D809589238083EE2019F0C6010E9453
:10035000FD00E989FA898081998D892B8083EE20BF
:1003600019F0C6010E94FD008E858F3F21F2EB89B6
:10037000FC898081988D892309F4BDCF012BBBCFE7
:10038000908180958923D8CFE989FA898081998DD8
:10039000892B8083EE2019F0C6010E94FD008D8517
:1003A0008F3F49F0EF85F8898F899F2D912359F070
:1003B0009081892B8083E989FA899081898D809544
:1003C00089238083D1CF908180958923F3CF16959F
:1003D00098CF90E0FC01E458FF4F2491FC01E65EC9
:1003E000FE4F3491FC01EA5FFE4FE491EE23C9F029
:1003F000222339F0233001F1A8F4213019F1223001
:1004000029F1F0E0EE0FFF1FEE58FF4FA591B491D8
:100410008FB7F894EC91611126C030953E233C9340
:100420008FBF08952730A9F02830C9F0243049F74C
:10043000809180008F7D03C0809180008F778093B2
:100440008000DFCF84B58F7784BDDBCF84B58F7D0F
:10045000FBCF8091B0008F778093B000D2CF809196
:10046000B0008F7DF9CF3E2BDACF1F93CF93DF9370
:10047000182FD92F80919B0360E0C1E0811102C049
:1004800061E0C0E080918F030E94E90180919303B5
:10049000909194039C01129FC001139F900D112411
:1004A0000E94FD006C2F80918F030E94E9018091D2
:1004B0009303909194039C01D29FC001D39F900D10
:1004C0001124DF91CF911F910C94FD00FC018385D5
:1004D0008F3F19F061E00C94E9010895FC018081DF
:1004E0009181892B39F0A281B3819C9111968C91D5
:1004F0009CBD8DBD83858F3F19F060E00C94E901B0
:100500000895CF92DF92EF92FF920F931F93CF93B4
:10051000DF938C01EB016A0179010E946E02688110
:10052000C8010E940801E601EC0CFD1C6FEFC80138
:100530000E9408018993CE15DF05C1F7C8010E940A
:10054000660281E0DF91CF911F910F91FF90EF90B4
:10055000DF90CF900895CF93DF9390E0FC01E65EAB
:10056000FE4F24918A5F9E4FFC0184918823C9F03D
:1005700090E0880F991FFC01E859FF4FA591B491B5
:10058000FC01EE58FF4FC591D49161110DC09FB78A
:10059000F8948C91209582238C938881282328833A
:1005A0009FBFDF91CF910895623051F49FB7F894C7
:1005B0003C91822F809583238C93E8812E2BEFCF63
:1005C0008FB7F894EC912E2B2C938FBFEACF3FB7C7
:1005D000F89480916E0290916F02A0917002B09198
:1005E000710226B5A89B05C02F3F19F00196A11DE9
:1005F000B11D3FBFBA2FA92F982F8827BC01CD016D
:10060000620F711D811D911D42E0660F771F881FCB
:10061000991F4A95D1F708958F929F92AF92BF92FA
:10062000CF92DF92EF92FF924B015C010E94E702B2
:100630006B017C010E94E7026C197D098E099F09FC
:10064000683E734081059105A8F321E0821A910864
:10065000A108B10888EEC80E83E0D81EE11CF11C89
:1006600081149104A104B10429F7FF90EF90DF9069
:10067000CF90BF90AF909F908F900895CF92DF92D0
:10068000EF92FF920F931F93CF93DF93CDB7DEB717
:10069000C054D1400FB6F894DEBF0FBECDBF2FB708
:1006A000F8948091720290917302A0917402B091BB
:1006B00075022FBF4091A5035091A6036091A70337
:1006C0007091A8038C019D01041B150B260B370BA1
:1006D000B901A801403D57406105710590F4809132
:1006E000AD03C05CDE4F0FB6F894DEBF0FBECDBFCA
:1006F000DF91CF911F910F91FF90EF90DF90CF90FE
:1007000008958093A5039093A603A093A703B093A5
:10071000A8031092A00310929F0310929E031092C0
:100720009D0310929C0362E08091A1030E94AB02A2
:1007300061E070E080E090E00E940C0361E0809155
:10074000A1030E94AB0260E08091A1030E94E90135
:100750008091A20385518230E0F48BE291E1019710
:10076000F1F762E08091A1030E94AB028091AE0399
:1007700090E00E94FD00F89480E00E94C5006F3F69
:100780007F4F8F4F9F4F61F41092AD03789480E0BC
:10079000A8CF64E170E080E090E00E940C03E1CF1C
:1007A00081E00E94C5006F3F7F4F8F4F9F4F61F3E5
:1007B0008E010F5F1F4F6E018FEBC81A8EEFD80AA4
:1007C000780180E00E94C500F70160837183828315
:1007D000938381E00E94C500F7016483758386835B
:1007E0009783F8E0EF0EF11CEC14FD0451F77894B8
:1007F00030E020E0F801C080D180E280F3804481C5
:10080000558166817781FFEFCF16DF06EF06FF0681
:1008100031F04F3F8FEF58076807780719F41092AF
:10082000AD03B5CFF90183E0F595E7958A95E1F73A
:10083000E456FC4F8081880FC416D506E606F706FD
:1008400010F180832F5F3F4F085F1F4F2832310523
:1008500089F64091A00320919C0380919D03280F6D
:100860003327331F80919E03280F311D80919F03F2
:10087000820F932F911D99274817190681F681E061
:100880008093AD032ECF8160DCCF0895AF92BF92ED
:10089000CF92DF92EF92FF920F931F93CF93DF934C
:1008A0006C017B018B01040F151FEB015E01AE187B
:1008B000BF08C017D10759F06991D601ED91FC919D
:1008C0000190F081E02DC6010995892B79F7C501CA
:1008D000DF91CF911F910F91FF90EF90DF90CF901C
:1008E000BF90AF900895FC01538D448D252F30E0CB
:1008F000842F90E0821B930B541710F0CF9608952D
:1009000001970895FC01918D828D981761F0A28D59
:10091000AE0FBF2FB11D5D968C91928D9F5F9F731F
:10092000928F90E008958FEF9FEF0895FC01918DD5
:10093000828D981731F0828DE80FF11D858D90E042
:1009400008958FEF9FEF0895FC01918D228D892FDF
:1009500090E0805C9F4F821B91098F7399270895C7
:100960008CEE92E00E94A40421E0892B09F420E09F
:10097000822F089580E090E0892B29F00E94B00436
:1009800081110C9400000895FC01A48DA80FB92FCB
:10099000B11DA35ABF4F2C91848D90E001968F73A7
:1009A0009927848FA689B7892C93A089B1898C91C6
:1009B000837080648C93938D848D981306C0028815
:1009C000F389E02D80818F7D80830895EF92FF92DF
:1009D0000F931F93CF93DF93EC0181E0888F9B8D62
:1009E0008C8D98131AC0E889F989808185FF15C01C
:1009F0009FB7F894EE89FF896083E889F98980813F
:100A00008370806480839FBF81E090E0DF91CF910D
:100A10001F910F91FF90EF900895F62E0B8D10E02F
:100A20000F5F1F4F0F731127E02E8C8D8E110CC09E
:100A30000FB607FCFACFE889F989808185FFF5CFE9
:100A4000CE010E94C404F1CFEB8DEC0FFD2FF11D00
:100A5000E35AFF4FF0829FB7F8940B8FEA89FB8926
:100A600080818062CFCFCF93DF93EC01888D882384
:100A7000B9F0AA89BB89E889F9898C9185FD03C001
:100A8000808186FD0DC00FB607FCF7CF8C9185FFE6
:100A9000F2CF808185FFEDCFCE010E94C404E9CF63
:100AA000DF91CF910895089508952091B501260F03
:100AB0003327331F21323105ECF42091C202FC01AF
:100AC00090E080E0243069F082E00895A091B501C3
:100AD0002191AC014B565E4FA40FB52FB11D2C9345
:100AE0000196861798F38091B501680F6093B50160
:100AF00080E0089581E008951092C20281E0809321
:100B0000C10210929C0261E082E10E94E90161E071
:100B100083E10E94E901E9EBF0E080818E7F808330
:100B200080818D7F808388E48093B80085E4809302
:100B3000BC00089510927B0210927A021092C902B2
:100B40001092EB020E947C0583EC90E09093790276
:100B50008093780284EC90E0909377028093760201
:100B60000895CF93DF9391E0909394018823B9F097
:100B7000C091B800D091BA008091BC008A7B80936C
:100B8000BC0060E082E10E94E90160E083E10E9434
:100B9000E9010E947C05D093BA00C093B800DF91B0
:100BA000CF9108958F929F92AF92BF92CF92DF9292
:100BB000EF92FF920F931F93CF93DF93D091EB02AD
:100BC000D13208F0D7C0182FC091EA020E94E70284
:100BD0006B017C018091C20281116BC082E0809325
:100BE000C2021093C1028FEF8093C0021092BF0225
:100BF000D093BE02AAECB2E0EEE9F2E080E0D813B6
:100C000091C010929D0280919D02CC0FC82BC09381
:100C10009D0280919C02813009F088C010929C0254
:100C20000E94E7026B017C0180919D028093BB00D2
:100C30008091C4029091C502A091C602B091C702F2
:100C4000892B8A2B8B2BA1F00E94E7020091C40212
:100C50001091C5022091C6023091C7026C197D091E
:100C60008E099F09061717072807390708F442C09D
:100C70008091BC0083FDD8CF85EC8093BC000E949E
:100C8000E7026B017C018091C202823009F450C0FE
:100C90008091C0028F3F09F46FC08091C002803202
:100CA00009F46CC08091C002803309F469C084E00B
:100CB00026C08091C4029091C502A091C602B09155
:100CC000C702892B8A2B8B2B09F484CF0E94E70261
:100CD0008090C4029090C502A090C602B090C70256
:100CE0006C197D098E099F0986169706A806B90614
:100CF00008F070CF8091C3020E94B10585E0109288
:100D0000C9021092EB021092C802DF91CF911F919D
:100D10000F91FF90EF90DF90CF90BF90AF909F909A
:100D20008F9008959D9191938F5F69CF85EEA5CFA8
:100D30008091C4029091C502A091C602B091C702F1
:100D4000892B8A2B8B2B09F49ECF0E94E7020091FE
:100D5000C4021091C5022091C6023091C7026C19DD
:100D60007D098E099F09061717072807390708F01C
:100D70008ACFC0CF81E0C3CF80E0C1CF82E0BFCFB8
:100D800083E0BDCF1F93CF93DF93EA01122FDC01E5
:100D900011968D919C91DC01ED91FC910280F38183
:100DA000E02D0995C817D90729F4812F0E94D20593
:100DB00091E0811190E0892FDF91CF911F910895EB
:100DC000CF93DF93EC018B818823A1F0888191E0A0
:100DD0009093C8028093EA021092C9021092EB022B
:100DE00081E00E94D20591E0811190E0892FDF918E
:100DF000CF9108950E949A0581E08B83CE010E94D5
:100E0000E006982F8111E2CFF1CF0895E0917B02A7
:100E100080917A02E81730F4F0E0E458FD4F8081C9
:100E200090E008958FEF9FEF089590917B0280915D
:100E30007A022FEF3FEF981748F4E92FF0E0E458DB
:100E4000FD4F208130E09F5F90937B02C9010895A0
:100E500080917A0290917B02891B990B0895CF9221
:100E6000DF92EF92FF920F931F93CF93DF937C015A
:100E7000CB018A012091C802222389F0EB016B018A
:100E8000C40ED51ECC15DD0569F06991D701ED9131
:100E9000FC910190F081E02DC7010995F3CF642FFB
:100EA0000E945505C801DF91CF911F910F91FF90CE
:100EB000EF90DF90CF900895CF93DF931F92CDB73F
:100EC000DEB769832091C8022223F9F02091EB025A
:100ED000203258F021E030E0FC013383228390E09F
:100EE00080E00F90DF91CF9108958091C902E82FA3
:100EF000F0E0E653FD4F998190838F5F8093C902A4
:100F00008093EB0281E090E0ECCF61E0CE010196AE
:100F10000E945505F7CF90E080E008950F931F934E
:100F2000CF93DF9300D0CDB7DEB76A83E091BD03E6
:100F3000F091BE033097F9F08983848195810297FF
:100F400098F0808191E09093C8028093EA02109219
:100F5000C9021092EB0221E042E050E0BE016F5F57
:100F60007F4FCF010E94C2060F900F90DF91CF916B
:100F70001F910F9108958F7789830091BF0310917E
:100F8000C003C8010E946E026981C8010E94080165
:100F90006A81C8010E940801C8010E946602E4CF6C
:100FA0002F923F924F925F926F927F928F929F9279
:100FB000AF92BF92CF92DF92EF92FF920F931F9367
:100FC000CF93DF93DC011496ED91FC911597EF2BF5
:100FD00009F425C169012A01EC01888191E090930F
:100FE000C8028093EA021092C9021092EB0220E03C
:100FF00041E050E0CD010E94C206782E882309F41A
:101000000EC1F12CE12C332433948C819D81860117
:101010000E191F098017910708F48C0128800E947F
:10102000E7024B015C018091C202811173C0602E06
:10103000B0E2B01710F480E2682E3092C20221E0D4
:10104000C601801B910BE816F90608F420E02093F6
:10105000C102EFEFE093C0021092BF028FEF860D46
:101060008093BE0230929D0280919D02220C282A1C
:1010700020929D0280919C02813009F090C01092D4
:101080009C020E94E7024B015C0180919D028093CB
:10109000BB008091C4029091C502A091C602B0919C
:1010A000C702892B8A2B8B2BA1F00E94E70220918B
:1010B000C4023091C5024091C6025091C70268191E
:1010C00079098A099B09261737074807590708F441
:1010D00042C08091BC0083FDD8CFF5ECF093BC00FA
:1010E0000E94E7024B015C018091C202813009F449
:1010F0005AC08091BF02861510F46090BF02AEE91D
:10110000B2E0ECE7F2E080E0861551F19D91919319
:101110008F5FFACF8091C4029091C502A091C60260
:10112000B091C702892B8A2B8B2B09F47CCF0E94AC
:10113000E7022091C4023091C5024091C60250914D
:10114000C702681979098A099B09261737074807D2
:10115000590708F068CF8091C3020E94B105612C45
:1011600010927B0260927A026016110609F057C055
:1011700042018E0C9F1C5401C501881999098017E2
:10118000910798F589819A81DC01ED91FC910284A7
:10119000F385E02D0995F50181935F01EDCF85EE93
:1011A0008093BC009DCF8091C4029091C502A09114
:1011B000C602B091C702892B8A2B8B2B09F494CFDE
:1011C0000E94E7022091C4023091C5024091C602FC
:1011D0005091C702681979098A099B0926173707B0
:1011E0004807590708F080CFB6CFE00EF11EEC1487
:1011F000FD0408F40ACF872DDF91CF911F910F9145
:10120000FF90EF90DF90CF90BF90AF909F908F9026
:101210007F906F905F904F903F902F900895712C2A
:10122000EACFCF93DF9300D0CDB7DEB7E091BD0317
:10123000F091BE03898322E030E0AE014F5F5F4F43
:10124000BA01309751F0CF010E94D00789819A816D
:101250000F900F90DF91CF9108958091BF039091EF
:10126000C0030E948102F2CFCF93DF9300D01F9280
:10127000CDB7DEB7FC0182819381698323E030E042
:10128000AE014F5F5F4FBA010097A1F00E94D007F7
:1012900029816A8170E090E080E0982F872F762F77
:1012A0006627822B2B81622B0F900F900F90DF917E
:1012B000CF910895848195810E948102E9CF8F9218
:1012C0009F92AF92BF92CF92DF92EF92FF920F93D5
:1012D0001F93CF93DF93EC016AEF0E9434090B89CF
:1012E0001C8930E020E0C72ED82EE92EFF24E7FC31
:1012F000FA94C01AD10AE20AF30A57E09595879545
:10130000779567955A95D1F7000F111F221F331F4C
:101310004B015C01801A910AA20AB30AA50194014B
:10132000AD89BE890E94D4164B015C01FBE0B594E7
:10133000A79497948794FA95D1F7A7019601C701CE
:10134000B6010E9483169B01AC01ACE05595479510
:1013500037952795AA95D1F7AF89B88D0E94D416F5
:101360009B01AC01BEE05595479537952795BA95F9
:10137000D1F7280D391D4A1D5B1D2F87388B498BEE
:101380005A8BA5E0B0E00E94C91660587F4F8F4F7E
:101390009F4F672F782F892F992787FD9A950E9455
:1013A0008A1920E030E048EC52E40E94E118DF9115
:1013B000CF911F910F91FF90EF90DF90CF90BF9052
:1013C000AF909F908F9008952F923F924F925F928F
:1013D0006F927F928F929F92AF92BF92CF92DF9245
:1013E000EF92FF920F931F93CF93DF93CDB7DEB7AA
:1013F0006D970FB6F894DEBF0FBECDBF9D8F8C8F5B
:10140000FC0183859485A585B685892B8A2B8B2B3A
:1014100019F0CF010E945F0967EF8C8D9D8D0E94AE
:101420003409688F798F8A8F9B8FEC8DFD8D87852E
:101430009089A189B2896C017D01FF0CCC08DC2C5C
:1014400076019C01AD016C2D7C2D8C2D9C2D345F83
:1014500041405109610971098109910929873A8738
:101460004B875C873B014C0159016A017B018C0170
:101470000E94DC16322E232E4A8B5B8B6C8B7D8B6D
:101480008E8B9F8BAC8DBD8D5C963C915C975B96F3
:101490002C91932F990F990B492F592F692F792F41
:1014A000892F0E94DC160CE00E940B18522E398303
:1014B0004D875E876F87788B898B492EEC8DFD8DEC
:1014C000368D258D932F990F990BA32CB22CCA889A
:1014D000DB88EC88FD880E891F89492F592F692FD9
:1014E000792F892F0E94DC1608E00E942418A52C71
:1014F000B980CD84DE84EF84F8880989142D0E9498
:10150000411870588F4F9F4FAC8DBD8D5996ED91FE
:10151000FC915F01D12CC12CE12CF12C8701E983D6
:10152000BA82CB82DC82ED82FE820F831887C12CC7
:10153000D12CE12CF12C00E010E00E94DC1601E23D
:101540000E9424182983532E4D875E876F87788BDE
:10155000898B492EA0E00E94531809F43DC1AC8D3F
:10156000BD8D94963C91949793962C91932F990FBF
:10157000990BA32CB22CCA88DB88EC88FD880E89D5
:101580001F89492F592F692F792F892F0E94DC1627
:1015900019014A8B5B8B6C8B7D8B8E8B9F8BEC8DBB
:1015A000FD8D32A121A1932F990F990BA984BA84A3
:1015B000CB84DC8473018401492F592F692F792F43
:1015C000892F0E94DC1601E10E940B185101CA8884
:1015D000DB88EC88FD880E891F890E94411859011B
:1015E0006A017B01282E192F488D598D6A8D7B8DBC
:1015F00084E075956795579547958A95D1F780E072
:1016000090E0A0E1B0E0841B950BA60BB70B3C016A
:101610004D01990C6608762C43019C01AD01662DA5
:10162000762D862D962D0FE10E940B18722E832E9B
:10163000942E652EB62FA72F382E9987EC8DFD8D11
:1016400030A1278D932F990F990B492F592F692F6F
:10165000792F892F03E20E940B18022D0E94411856
:1016600059016A017B018C01272D382D492D562DFA
:101670006B2F7A2F832D99850E944A18E5E3AE2EB1
:10168000FCE0BF2EC12CD12CE12CF12C00E010E0AD
:101690000E94DC16A980B52CCD84DE84EF84F88806
:1016A0000989142D0E94361729873A874B875C8752
:1016B00069837D878E879F870DE00E942418922E74
:1016C000832E742E652E562E472E382E292EAC8D45
:1016D000BD8D9A963C919A9799962C91932F990F3C
:1016E000990BA92CB82CC72CD62CE52CF42C032D47
:1016F000122D492F592F692F792F892F0E94DC161F
:101700000E94DC1609E10E942418A984BA84CB84C3
:10171000DC84E980FD840E851F850E944118190133
:101720002A013B014C01EC8DFD8D30A527A1932FA3
:10173000990F990B492F592F692F792F892F0E94C3
:10174000DC1603E10E94241859016A017B018C0117
:101750009101A201B301C4010E94411808E00E9456
:10176000241859016A017B01E82F192FAC8DBD8D1A
:1017700096963C91969795962C91932F990F990B4D
:10178000492F592F692F792F892F04E00E940B18B8
:101790000E2F0E9441180E94821920E030E040E89C
:1017A0005BE30E94641A6D960FB6F894DEBF0FBE1D
:1017B000CDBFDF91CF911F910F91FF90EF90DF9000
:1017C000CF90BF90AF909F908F907F906F905F90E1
:1017D0004F903F902F90089560E070E0CB01E3CFF1
:1017E0002F923F924F925F926F927F928F929F9231
:1017F000AF92BF92CF92DF92EF92FF920F931F931F
:10180000CF93DF93CDB7DEB765970FB6F894DEBF01
:101810000FBECDBF0E94E7026B017C018091660282
:10182000909167022601481A590A4DEC441640E18E
:10183000540608F4E0C0809164029091650200971C
:1018400089F02091DE013091DF011201221A330A62
:10185000910137FE03C0319521953109283C3105AE
:101860000CF0C5C0019690936502809364020297C4
:1018700009F0BDC09AE9692E90E0792E01E010E0F0
:101880002090DC013090DD013B862A8649E050E063
:10189000B301CE0101960E947A168B816C81681784
:1018A00008F4682F70E08091DE019091DF010E94C2
:1018B00093169B014091040150910501649FC00162
:1018C000659F900D749F900D112464E670E00E9456
:1018D00093168985A1E0B0E0882311F0A2E0B0E082
:1018E0008D81829FA001839F500D11245D874C87BD
:1018F0008E81829F1001839F300C11243F862E869B
:101900008F81829FA001839F500D1124598B488B9A
:101910008885829F1001839F300C11243B8A2A8A7C
:10192000FD01EE0FFF1FE252FE4F812C912C54015E
:101930004A855B85415051095D8B4C8B8C899D8913
:10194000A817B90708F040C0880C991CAA1CBB1C3A
:1019500080819181AC012C843D844219530957FF49
:1019600003C05195419551094617570770F44281BC
:1019700053812E843F844219530957FF03C0519568
:101980004195510946175707E0F048895989841B4A
:10199000950B97FF03C0919581959109861797073D
:1019A000C8F4828193812A883B888219930997FF22
:1019B00003C09195819591098617970758F468940B
:1019C00080F812963496BACF4A855B854830510527
:1019D00008F053C00F5F1F4F59E0650E711C0D30AA
:1019E000110509F04DCF1092650210926402109219
:1019F000DD011092DC018091DC019091DD018334E6
:101A0000910540F01092DD011092DC011092650208
:101A1000109264028091DC019091DD019C012F5FA6
:101A20003F4F3093DD012093DC01880F991FFC01AB
:101A3000E252FE4F51824082C0926602D09267020B
:101A4000E0926802F092690265960FB6F894DEBFE4
:101A50000FBECDBFDF91CF911F910F91FF90EF90FF
:101A6000DF90CF90BF90AF909F908F907F906F90BE
:101A70005F904F903F902F900895809289039092AD
:101A80008A03A0928B03B0928C032C883D883694F5
:101A9000279430926C0220926B023093DB012093EA
:101AA000DA011093D9010093D8019DCFFC01019078
:101AB0000020E9F73197AF01481B590BBC018CEEB0
:101AC00092E00C944604CF92DF92EF92FF920F9334
:101AD0001F93CF93DF93CDB7DEB7A1970FB6F894DE
:101AE000DEBF0FBECDBF9B01AC0119A28E010F5D01
:101AF0001F4F8AE0C82ED12CE12CF12CCA01B9016C
:101B0000A70196010E94A716605DF80162938F01FC
:101B1000211531054105510589F73097C9F0CF01ED
:101B20000E94560D8C018CE491E00E94560D800FAE
:101B3000911FA1960FB6F894DEBF0FBECDBFDF9107
:101B4000CF911F910F91FF90EF90DF90CF9008956C
:101B500010E000E0E8CFCF93DF930E94560DEC0138
:101B60008CE491E00E94560D8C0F9D1FDF91CF9168
:101B700008950C94961B0C94961BCF93DF93EB0166
:101B8000FB01349620E2DF011D922A95E9F744E239
:101B900050E060E070E0488359836A837B83FC01F6
:101BA00042815381052E000C660B770B4C835D83BD
:101BB0006E837F8346E050E060E070E0488759879D
:101BC0006A877B872FB7F894409172025091730215
:101BD00060917402709175022FBF488B598B6A8B8C
:101BE0007B8B84819581FC01438554856585768551
:101BF000452B462B472B81F00E94E40920E030E082
:101C000048EC52E40E94E1186C8B7D8B8E8B9F8B8D
:101C100081E0DF91CF91089560E070E080EC9FE774
:101C2000EDCFCF93DF93EB01FB01349620E2DF0190
:101C30001D922A95E9F744E250E060E070E04883A5
:101C400059836A837B83FC0142815381052E000CFA
:101C5000660B770B4C835D836E837F834DE050E092
:101C600060E070E0488759876A877B872FB7F894D0
:101C700040917202509173026091740270917502EA
:101C80002FBF488B598B6A8B7B8B84819581FC019C
:101C90004385548565857685452B462B472B51F02A
:101CA0000E945F096C8B7D8B8E8B9F8B81E0DF9117
:101CB000CF91089560E070E080EC9FE7F3CF0F9341
:101CC0001F93CF93DF938C01EB0188E2FB0111920C
:101CD0008A95E9F74BE050E06FE471E0CE010E9495
:101CE0001F1C1B8681E090E0A0E0B0E08C879D8700
:101CF000AE87BF87F80182819381092E000CAA0B61
:101D0000BB0B888B998BAA8BBB8B86E090E0A0E005
:101D1000B0E08C8B9D8BAE8BBF8B1CA21DA21EA234
:101D20001FA280E090E0A6E9B3E48C8F9D8FAE8F78
:101D3000BF8F80E090E8A9E8B4E4888F998FAA8FDC
:101D4000BB8F86EA9BE9A4E4BCE388A399A3AAA37A
:101D5000BBA3DF91CF911F910F9108950F931F9314
:101D6000CF93DF938C01EB0188E2FB0111928A95FE
:101D7000E9F74BE050E06FE471E0CE010E941F1CD8
:101D80001B8681E090E0A0E0B0E08C879D87AE8765
:101D9000BF87F80182819381092E000CAA0BBB0B2F
:101DA000888B998BAA8BBB8B8DE090E0A0E0B0E094
:101DB0008C8B9D8BAE8BBF8B1CA21DA21EA21FA263
:101DC00080E090E0A0E2B2EC8C8F9D8FAE8FBF8F51
:101DD00080E090E0AAEAB2E4888F998FAA8FBB8F47
:101DE0008AE097EDA3E2BCE388A399A3AAA3BBA3CF
:101DF000DF91CF911F910F91089585ED8093BC00E5
:101E00008091C4029091C502A091C602B091C70210
:101E10000796A11DB11D23E0B695A79597958795C7
:101E20002A95D1F72091BC0024FD03C01092C20274
:101E300008954091C4025091C5026091C60270910C
:101E4000C702452B462B472B69F30097A105B10527
:101E500041F02AE22A95F1F700C00197A109B109E2
:101E6000E1CF8091C3020C94B1051F920F920FB67F
:101E70000F9211242F933F938F939F93AF93BF9310
:101E80008091720290917302A0917402B0917502D8
:101E900030916D0223E0230F2D3758F50196A11DD7
:101EA000B11D20936D028093720290937302A093F0
:101EB0007402B093750280916E0290916F02A091AE
:101EC0007002B09171020196A11DB11D80936E0246
:101ED00090936F02A0937002B0937102BF91AF9183
:101EE0009F918F913F912F910F900FBE0F901F9058
:101EF000189526E8230F0296A11DB11DD2CF1F927F
:101F00000F920FB60F9211242F933F934F935F932D
:101F10006F937F938F939F93AF93BF93EF93FF93B1
:101F2000E0910201F09103010995FF91EF91BF91BA
:101F3000AF919F918F917F916F915F914F913F9161
:101F40002F910F900FBE0F901F9018951F920F9218
:101F50000FB60F9211242F933F934F935F936F937C
:101F60007F938F939F93AF93BF93EF93FF93E091F2
:101F70000001F09101010995FF91EF91BF91AF919F
:101F80009F918F917F916F915F914F913F912F9191
:101F90000F900FBE0F901F9018951F920F920FB6C3
:101FA0000F9211242F933F934F935F936F937F93DF
:101FB0008F939F93AF93BF93EF93FF938CEE92E039
:101FC0000E94C404FF91EF91BF91AF919F918F91B7
:101FD0007F916F915F914F913F912F910F900FBE25
:101FE0000F901F9018951F920F920FB60F92112409
:101FF0002F938F939F93EF93FF93E091FC02F091C7
:10200000FD028081E0910203F091030382FD1BC079
:102010009081809105038F5F8F7320910603821753
:1020200041F0E0910503F0E0E451FD4F958F80937E
:102030000503FF91EF919F918F912F910F900FBE0C
:102040000F901F9018958081F4CF1F920F920FB6BA
:102050000F9211242F933F934F935F936F937F932E
:102060008F939F93AF93BF93EF93FF938091B900AA
:10207000887F803609F44AC0F0F5883209F4A7C099
:1020800018F5803109F49BC0B8F4882309F4F9C02D
:10209000883009F494C0FF91EF91BF91AF919F9167
:1020A0008F917F916F915F914F913F912F910F9001
:1020B0000FBE0F901F901895883109F488C08032A8
:1020C00051F78093C00214C0803409F49DC040F4DD
:1020D0008033B9F38833F9F68093C00285ECB0C041
:1020E000803509F485C0883509F496C0883499F69E
:1020F0000E94FD0ED0CF883909F48CC038F588379E
:1021000029F050F4883611F0803729F683E0809367
:10211000C2021092D70157C0883809F47BC08039B9
:1021200019F0803809F0B7CF8091D701803208F0DC
:1021300071C0E091D70181E08E0F8093D70180912B
:10214000BB00F0E0E954FE4F80833DC0803B39F096
:10215000E0F4803A09F479C0883A09F09CCF84E031
:102160008093C2021092B6011092B501E0917802FC
:10217000F091790209958091B50181110FC081E03C
:102180008093B5011092950109C0803C09F4A6CF57
:10219000883C09F4A3CF883B09F07DCFE091B601DC
:1021A00081E08E0F8093B601F0E0EB56FE4F808108
:1021B0008093BB009091B6018091B50129C08091B8
:1021C0009D028093BB0085EC8093BC0064CF90910E
:1021D000BF028091BE02981758F5E091BF0281E0DE
:1021E0008E0F8093BF02F0E0E256FD4F8081E9CF71
:1021F000E091BF0281E08E0F8093BF028091BB000F
:10220000F0E0E256FD4F80839091BF028091BE02C4
:102210009817C8F285E8D8CFE091BF0281E08E0F11
:102220008093BF028091BB00F0E0E256FD4F8083B7
:102230008091C10281115CCF81E080939C0284EA8D
:102240008093BC001092C20226CF85EC8093BC0024
:102250001092C2028091D701803230F4E091D70110
:10226000F0E0E954FE4F10826091D70170E0E091F8
:102270007602F091770287EB91E009951092D701F1
:102280000ACF1092C00234CF0F931F93CF93DF93E6
:10229000ECEEF2E01382128288EE93E0A0E0B0E070
:1022A00084839583A683B78320E131E03183208343
:1022B00025EC30E03587248724EC30E0378726870B
:1022C00020EC30E0318B208B21EC30E0338B228B03
:1022D00022EC30E0358B248B26EC30E0378B268BDC
:1022E000118E128E138E148EEFEAF3E01382128297
:1022F00084839583A683B78382E291E09183808370
:10230000CBEBD3E01B821A821D821C821B861C86AB
:102310001D861E861BA61CA6F983E88386E090E036
:102320000E94FA1AFC0182E491E09183808388E1A3
:1023300091E093838283D583C483FF83EE8386E019
:1023400090E00E94FA1AFC0184E391E0918380837B
:1023500013821282D583C483F987E887ACE9B3E09E
:1023600084E015968C9315978BE016968C931697B0
:10237000EEE1F1E0E4911796EC931797EAE0F1E0D3
:10238000E4911896EC93189740E85EE360E070E003
:102390001D964D935D936D937C935097CDE8D3E05C
:1023A0000FEF1FEF1B830A838AE090E09D838C83ED
:1023B00049E050E06AE970E083E993E00E947A1610
:1023C000198308838CE390E09093050180930401C6
:1023D0001092890310928A0310928B0310928C033F
:1023E000DF91CF911F910F910895CF93DF93CDB7D8
:1023F000DEB729970FB6F894DEBF0FBECDBF789435
:1024000084B5826084BD84B5816084BD85B58260F9
:1024100085BD85B5816085BD80916E0081608093AA
:102420006E00109281008091810082608093810013
:102430008091810081608093810080918000816023
:10244000809380008091B10084608093B10080917E
:10245000B00081608093B00080917A0084608093A6
:102460007A0080917A00826080937A0080917A006D
:10247000816080937A0080917A00806880937A00EE
:102480001092C100E091FC02F091FD0282E0808395
:10249000E091F802F091F9021082E091FA02F091D5
:1024A000FB0280E1808310920403E0910003F0912D
:1024B000010386E08083E091FE02F091FF028081BB
:1024C00080618083E091FE02F091FF02808188604C
:1024D0008083E091FE02F091FF028081806880831A
:1024E000E091FE02F091FF0280818F7D808364E69F
:1024F00070E080E090E00E940C030E949A05009139
:10250000BF031091C0030115110571F58091BD0342
:102510009091BE03009711F00E94961B86E090E018
:102520000E94FA1A8C018091BB039091BC0326E7AC
:10253000F801208392838183138280E290E0958367
:1025400084831093BE030093BD030E949A0581E02B
:10255000F8018383C8010E94E00681114DC086E521
:1025600091E00E94AB0DF9C0F80183858F3F41F0E7
:1025700061E00E94AB0261E0F80183850E94E901FD
:10258000F80180819181892B09F427C1FFB6F89465
:1025900080916A02811127C0E0E1F1E08491E4E2D8
:1025A000F1E09491E82FF0E0EE0FFF1FE859FF4FA4
:1025B000A591B491EC91E92321F461E08AE00E94B5
:1025C000E90161E08AE00E94AB028CB580618CBDBC
:1025D0008CB580648CBD61E08DE00E94AB0261E04F
:1025E0008BE00E94AB0280916A028F5F80936A0247
:1025F000FFBE81E0F801838F8091BD039091BE03FF
:10260000009709F40CC120ED298321E030E0AE01F0
:102610004F5F5F4FBA010E94D007898190E0B0E020
:10262000A0E08093C6039093C703A093C803B09320
:10263000C90388359105A105B10509F090CF88E857
:102640000E9411099093CF038093CE038AE80E94E1
:1026500011099093D1038093D0038CE80E94110953
:102660009093D3038093D2038EE80E941109909334
:10267000D5038093D40380E90E9411099093D70376
:102680008093D60382E90E9411099093D903809325
:10269000D80384E90E9411099093DB038093DA0345
:1026A00086E90E9411099093DD038093DC0388E999
:1026B0000E9411099093DF038093DE038AE90E9450
:1026C00011099093E1038093E0038CE90E941109C2
:1026D0009093E3038093E2038EE90E9411099093A3
:1026E000E5038093E4038091C6039091C703A09112
:1026F000C803B091C903892B8A2B8B2B41F18DEE36
:102700008093E7036091E603607C6093E60367FBD8
:10271000662760F985EF0E948E078091E703682F96
:102720006770F0E26F9FB0011124282F269526953F
:102730002695277044E0249F90011124622B8295F6
:10274000869586958370682B84EF0E948E0764E6D9
:1027500070E080E090E00E940C0362E08091A103B1
:102760000E94AB022FB7F89480917202909173028D
:10277000A0917402B09175022FBF805D9740A109AE
:10278000B1098093A5039093A603A093A703B093E8
:10279000A80387E38093AE038AE090E090939003D0
:1027A00080938F0361E00E94AB0260E0262E60E020
:1027B000362E0E943E03882349F08091A2038C307C
:1027C00009F494C0D8F58B3009F451C0812C912CB8
:1027D00040ECA42E4FE7B42E74C061E084850E94C3
:1027E000AB02F80182858B7F60E009F061E08485AF
:1027F0000E94E901F80185858F3F41F061E00E9468
:10280000AB0261E0F80185850E94E901F801868547
:102810008F3F09F4EECE60E00E94AB02EACE80ED7D
:10282000898321E030E0AE014F5F5F4FBA018091B4
:10283000BF039091C0030E948102EFCE8551823088
:1028400028F610919E03612F70E0762F6627662789
:102850007F7780919F03682B90E080E00E94881929
:102860002DEC3CEC4CEC5DE30E94641A5BC0609183
:102870009E0370E090E080E00E9488196B017C016B
:1028800010919F0317FF0AC0AC019B0160E070E04C
:1028900080E89FEB0E9474186B017C011F70612F10
:1028A00070E090E080E00E948A192DEC3CEC4CEC4A
:1028B0005DE30E94641AA70196010E9475184B01FE
:1028C0005C010E943E03882351F08091A2038B306B
:1028D00030F08D3080F18551823008F46CC1412C8C
:1028E000512C30EC632E3FE7732E43C010919E03B2
:1028F000612F70E090E080E00E9488196B017C01FC
:1029000060919F036F7070E090E080E00E948A19F0
:102910002DEC3CEC4CEC5DE30E94641AA70196019F
:102920000E9475184B015C0117FFCBCFB7FAB0942A
:10293000B7F8B094C6CF60919D0370E090E080E05E
:102940000E948A192DEC3CEC4CEC5DE30E94641A69
:102950006B017C0160919C0370E090E080E00E943C
:102960008A199B01AC01C701B6010E9475182B01A1
:102970003C018091C6039091C703A091C803B09118
:10298000C903892B8A2B8B2B09F427C18BEB93E08E
:102990000E94E40920E030E048EC52E40E94E11893
:1029A0006B017C01A5019401C501B4010E94D11AFB
:1029B000882319F0812C912C5401A3019201C301A9
:1029C000B2010E94D11A882319F0412C512C3201F6
:1029D00020E030E040E251E4C501B4010E94641AF5
:1029E0000E9453194B015C01C301B2010E945319AB
:1029F0002B013C0120E030E041E654E4C701B60180
:102A00000E9474180E9453196B017C01C501B40126
:102A10006C0D7D1D8E1D9F1D640D751D861D971DE2
:102A200024E630E040E050E00E94A7166E837F83EA
:102A300088879987A501940160E472E48FE090E0B3
:102A40000E9483166A837B838C839D83A4E6B0E017
:102A5000A70196010E94C9162A813B814C815D81A4
:102A6000260F371F481F591F2A833B834C835D83E2
:102A7000A0E1B7E2A30192010E94C9162A813B811D
:102A80004C815D81620F731F841F951F2E813F81D2
:102A900048855985260F371F481F591F2A833B83B6
:102AA0004C835D8384E791E00E94AB0D6A817B815A
:102AB0008C819D810E94630D83E891E00E94AB0DA3
:102AC000C501B4010E94630D87E891E00E94AB0D3F
:102AD000C301B2010E94630D8BE891E00E94AB0D2F
:102AE000C701B6010E94630D8FE891E00E94AB0D13
:102AF0006E817F81888599850E94630D80918F0307
:102B000090919003019609F4A3C0E0908D03F0909A
:102B10008E034FEFE416F406B9F08E2D823070F478
:102B2000F701FF27813009F45DC0E898EE0FFF1F21
:102B3000E050FF4F85E494E091838083EFEFFFEF57
:102B4000F0938E03E0938D03D12CC12C80919103DF
:102B500090919203C816D9060CF04BC00FE110E01B
:102B600081E090E0A0E0B0E0002E04C0880F991F43
:102B7000AA1FBB1F0A94D2F72A813B814C815D8139
:102B800082239323A423B523892B8A2B8B2B61F1DA
:102B90008091990390919A030E9435020150110986
:102BA000F8F680919503909196030E9435024FEFBD
:102BB000C41AD40ACBCF60919C0370919D037627F1
:102BC0006727762790E080E00E9488192DEC3CEC86
:102BD0004CEC5DE30E94641ACACE60E070E080ECC9
:102BE0009FE7D8CEE998A2CF809197039091980360
:102BF000D3CF60E080918F030E94E9015FEFE5167B
:102C0000F50631F1F0928E03E0928D031092890364
:102C100010928A0310928B0310928C0310926C0214
:102C200010926B028E2D823098F4F701FF27EE0F81
:102C3000FF1FE050FF4F20EF3BE0318320838130C6
:102C4000C9F0809169008C7F816080936900E89A67
:102C500068E873E180E090E00E940C0321143104E5
:102C600009F4A7CD0E94B004882309F4A2CD0E94E4
:102C700000009BCD80916900837F84608093690010
:102C8000E99AE6CFCF93DF93C091BF03D091C00301
:102C9000209749F08A819B81009711F00E94961B32
:102CA000CE010E94961B8091BD039091BE030097B8
:102CB00011F00E94961B8091C1039091C20300976E
:102CC00039F0DC01ED91FC910280F381E02D099552
:102CD0008091C3039091C403009749F0DC01ED910A
:102CE000FC910280F381E02DDF91CF910994DF9177
:102CF000CF910895FB01DC0102C005900D92415077
:102D00005040D8F70895DB018F939F930E94C91616
:102D1000BF91AF91A29F800D911DA39F900DB29F77
:102D2000900D11240895AA1BBB1B51E107C0AA1FD7
:102D3000BB1FA617B70710F0A61BB70B881F991F5C
:102D40005A95A9F780959095BC01CD010895A1E20F
:102D50001A2EAA1BBB1BFD010DC0AA1FBB1FEE1F15
:102D6000FF1FA217B307E407F50720F0A21BB30B60
:102D7000E40BF50B661F771F881F991F1A9469F7DC
:102D800060957095809590959B01AC01BD01CF0138
:102D900008950E946518A59F900DB49F900DA49F63
:102DA000800D911D11240895B7FF0C94C9160E943F
:102DB000C916821B930B0895DF93CF931F930F9334
:102DC0009A9DF02D219FF00D8B9DF00D8A9DE02D99
:102DD000F10D039FF00D029FE00DF11D4E9DE00DE2
:102DE000F11D5E9DF00D4F9DF00D7F936F93BF928F
:102DF000AF925F934F93D5010E9465188B01AC0190
:102E0000D7010E946518EB01E80FF91FD6010E9457
:102E10002B172F913F91D6010E946518C60FD71F1F
:102E2000E81FF91FAF91BF910E942B172F913F917F
:102E30000E946518C60FD71FE81FF91FD6010E9410
:102E40006518E60FF71F9801BE01CF010F911F9182
:102E5000CF91DF9108950E946518460F571FC81F34
:102E6000D91F08F431960895689401C0E894F92FA9
:102E7000F12B12F00C946817A0E0B0E0E2E4F7E167
:102E80000C94DA17092E059422F40E94C41711231A
:102E900092F4F0E80F26FFEFE094F094009510957F
:102EA000B094C094D094A194BF0ACF0ADF0AEF0A6D
:102EB000FF0A0F0B1F0B0E94731707FC0E94C41719
:102EC000CDB7DEB7ECE00C94F617689401C0E89437
:102ED0008F929F92CF93DF930E947317DF91CF91D0
:102EE0009F908F90089588249924F401E401B0E420
:102EF0009F93AA279A158B049C04ED05FE05CF0528
:102F0000D007A10798F4AD2FDC2FCF2FFE2FE92D8E
:102F1000982C892E982F872F762F652F542F432F8B
:102F2000322F2227B85031F7BF9127C01B2EBF91F7
:102F3000BB27220F331F441F551F661F771F881F93
:102F4000991F881C991CEE1FFF1FCC1FDD1FAA1F95
:102F5000BB1F8A149B04EC05FD05CE05DF05A00709
:102F6000B10748F08A189B08EC09FD09CE09DF0972
:102F7000A00BB10B21601A94E1F62EF49401AF017D
:102F8000BE01CD01000C08956095709580959095D7
:102F900030954095509521953F4F4F4F5F4F6F4F64
:102FA0007F4F8F4F9F4F08952F923F924F925F9286
:102FB0006F927F928F929F92AF92BF92CF92DF9249
:102FC000EF92FF920F931F93CF93DF93CDB7DEB7AE
:102FD000CA1BDB0B0FB6F894DEBF0FBECDBF099442
:102FE0002A88398848885F846E847D848C849B8499
:102FF000AA84B984C884DF80EE80FD800C811B81A7
:10300000AA81B981CE0FD11D0FB6F894DEBF0FBED5
:10301000CDBFED010895002E083090F0982F872F36
:10302000762F652F542F432F322F22270850F4CFAD
:10303000220F331F441F551F661F771F881F991FBC
:103040000A95B2F7002D089597FD1094002E0830D0
:1030500098F00850232F342F452F562F672F782FA5
:10306000892F912DF4CF159497958795779567952E
:1030700057954795379527950A95AAF71124002D5E
:1030800008952A0D3B1D4C1D5D1D6E1D7F1D801F6B
:10309000911F08952A193B094C095D096E097F09A2
:1030A000800B910B08950024A7FD00942A1730058A
:1030B0004005500560057005800590050895EE0FE8
:1030C000FF1F0590F491E02D0994A29FB001B39FDA
:1030D000C001A39F700D811D1124911DB29F700D21
:1030E000811D1124911D08955058BB27AA270E94C5
:1030F0008C180C942A1A0E941C1A38F00E94231A69
:1031000020F039F49F3F19F426F40C94091A0EF4B8
:10311000E095E7FB0C94031AE92F0E943B1A58F341
:10312000BA17620773078407950720F079F4A6F5AC
:103130000C945D1A0EF4E0950B2EBA2FA02D0B0106
:10314000B90190010C01CA01A0011124FF27591BEC
:1031500099F0593F50F4503E68F11A16F040A22FF2
:10316000232F342F4427585FF3CF46953795279563
:10317000A795F0405395C9F77EF41F16BA0B620B62
:10318000730B840BBAF09150A1F0FF0FBB1F661FA9
:10319000771F881FC2F70EC0BA0F621F731F841FEC
:1031A00048F4879577956795B795F7959E3F08F012
:1031B000B0CF9395880F08F09927EE0F97958795D4
:1031C00008950E94F5180C942A1A0E94231A58F0A8
:1031D0000E941C1A40F029F45F3F29F00C94031A56
:1031E00051110C945E1A0C94091A0E943B1A68F350
:1031F0009923B1F3552391F3951B550BBB27AA27B0
:1032000062177307840738F09F5F5F4F220F331FE9
:10321000441FAA1FA9F335D00E2E3AF0E0E832D0B1
:1032200091505040E695001CCAF72BD0FE2F29D0B4
:10323000660F771F881FBB1F261737074807AB0786
:10324000B0E809F0BB0B802DBF01FF2793585F4FFB
:103250003AF09E3F510578F00C94031A0C945E1AD4
:103260005F3FE4F3983ED4F3869577956795B795DD
:10327000F7959F5FC9F7880F911D9695879597F9E8
:103280000895E1E0660F771F881FBB1F6217730761
:103290008407BA0720F0621B730B840BBA0BEE1F76
:1032A00088F7E09508950E94431A88F09F5798F098
:1032B000B92F9927B751B0F0E1F0660F771F881F3B
:1032C000991F1AF0BA95C9F714C0B13091F00E9455
:1032D0005D1AB1E008950C945D1A672F782F882746
:1032E000B85F39F0B93FCCF3869577956795B3957C
:1032F000D9F73EF490958095709561957F4F8F4FEB
:103300009F4F089597FB16F40E940C1A0C94C6194F
:10331000E89409C097FB3EF490958095709561956F
:103320007F4F8F4F9F4F9923A9F0F92F96E9BB2725
:103330009395F695879577956795B795F111F8CFA1
:10334000FAF4BB0F11F460FF1BC06F5F7F4F8F4F0C
:103350009F4F16C0882311F096E911C0772321F002
:103360009EE8872F762F05C0662371F096E8862F9A
:1033700070E060E02AF09A95660F771F881FDAF7F1
:10338000880F9695879597F90895E894F92F96EB0D
:10339000FF2381F0121613061406440B9395F6953D
:1033A00087957795679557954040FF23B9F71BC0E0
:1033B00099270895882351F49850D2F7872B762FB8
:1033C000652F542F432F322F20E0B1F3121613062E
:1033D0001406440B88233AF09A95440F551F661F34
:1033E000771F881FCAF755234AF4440F551F11F45D
:1033F00060FF04C06F5F7F4F8F4F9F4F880F969580
:10340000879597F9089597F99F6780E870E060E0E5
:1034100008959FEF80EC0895909580957095609544
:1034200050954095309521953F4F4F4F5F4F6F4FCF
:103430007F4F8F4F9F4F089500240A94161617064A
:1034400018060906089500240A9412161306140695
:1034500005060895092E0394000C11F4882352F0F8
:10346000BB0F40F4BF2B11F460FF04C06F5F7F4FB0
:103470008F4F9F4F089557FD9058440F551F59F097
:103480005F3F71F04795880F97FB991F61F09F3F51
:1034900079F087950895121613061406551FF2CF7A
:1034A0004695F1DF08C0161617061806991FF1CFCA
:1034B00086957105610508940895E894BB276627F1
:1034C0007727CB0197F908950E94771A0C942A1A4E
:1034D0000E941C1A38F00E94231A20F0952311F044
:1034E0000C94031A0C94091A11240C945E1A0E946D
:1034F0003B1A70F3959FC1F3950F50E0551F629FE3
:10350000F001729FBB27F00DB11D639FAA27F00D3C
:10351000B11DAA1F649F6627B00DA11D661F829F63
:103520002227B00DA11D621F739FB00DA11D621F48
:10353000839FA00D611D221F749F3327A00D611D65
:10354000231F849F600D211D822F762F6A2F112447
:103550009F5750409AF0F1F088234AF0EE0FFF1F7A
:10356000BB1F661F771F881F91505040A9F79E3FD1
:10357000510580F00C94031A0C945E1A5F3FE4F33B
:10358000983ED4F3869577956795B795F795E79527
:103590009F5FC1F7FE2B880F911D9695879597F930
:1035A00008950E94D61A880B990B0895990F000868
:1035B000550FAA0BE0E8FEEF16161706E807F90705
:1035C000C0F012161306E407F50798F0621B730BA0
:1035D000840B950B39F40A2661F0232B242B252B21
:1035E00021F408950A2609F4A140A6958FEF811DC4
:1035F000811D08950F931F93CF93DF938230910520
:1036000010F482E090E0E091EA03F091EB0330E007
:1036100020E0B0E0A0E0309799F42115310509F4DD
:103620004AC0281B390B24303105D8F58A819B818B
:103630006115710589F1FB0193838283FE0111C03D
:10364000408151810281138148175907E0F04817E2
:10365000590799F4109761F012960C9312971396EC
:103660001C933296CF01DF91CF911F910F91089556
:103670000093EA031093EB03F4CF2115310551F0C9
:103680004217530738F0A901DB019A01BD01DF01A0
:10369000F801C1CFEF01F9CF9093EB038093EA03D8
:1036A000CDCFFE01E20FF31F819391932250310998
:1036B00039832883D7CF2091E8033091E903232B66
:1036C00041F420910801309109013093E9032093DE
:1036D000E80320910601309107012115310541F4DD
:1036E0002DB73EB740910A0150910B01241B350BB9
:1036F000E091E803F091E903E217F307A0F42E1B31
:103700003F0B2817390778F0AC014E5F5F4F241745
:10371000350748F04E0F5F1F5093E9034093E803CD
:10372000819391939FCFF0E0E0E09CCFCF93DF9324
:103730000097E9F0FC01329713821282A091EA030C
:10374000B091EB03ED0130E020E01097A1F420816F
:103750003181820F931F2091E8033091E9032817EC
:10376000390709F061C0F093E903E093E803DF91C2
:10377000CF910895EA01CE17DF07E8F54A815B8112
:103780009E0141155105B1F7E901FB83EA83499197
:103790005991C40FD51FEC17FD0761F48081918109
:1037A0000296840F951FE901998388838281938112
:1037B0009B838A83F0E0E0E012968D919C911397B1
:1037C0000097B9F52D913C911197CD010296820F8A
:1037D000931F2091E8033091E9032817390739F640
:1037E000309751F51092EB031092EA03B093E9037E
:1037F000A093E803BCCFD383C28340815181840F5F
:10380000951FC817D90761F44E5F5F4F8881998172
:10381000480F591F518340838A819B819383828300
:103820002115310509F0B0CFF093EB03E093EA03E3
:103830009ECFFD01DC01C0CF13821282D7CFFB01E6
:10384000DC014150504048F001900D920020C9F732
:1038500001C01D9241505040E0F7089510E0C8E9C2
:10386000D0E004C0FE010E945F182196C939D1073B
:06387000C9F7F894FFCF38
:10387600450445043C000000EC0380000000000005
:10388600E604460473043305A40482049604000087
:1038960000005C072F078B07050728071507060793
:1038A600000000005305BB0D5405BD0D5F0E000062
:1038B60000005305B90D5405110EAE0E0D0A004257
:1038C6004D5032383000436F756C64206E6F742033
:1038D60066696E6420424D503238302073656E73CF
:1038E6006F72210053656E64207061636B6167655A
:1038F6003A2000543A2000483A2000503A2000432B
:043906003A20000063
:00000001FF
